:020000021000EC
:10000000E03F082093010100FB000100E100010036
:10001000090101001901010029010100000000008F
:10002000000000000000000000000000D1A8010056
:10003000390101000000000061A90100590101001F
:1000400001AF010001AF010001AF010001AF0100EC
:1000500001AF010001AF010001AF010001AF0100DC
:1000600001AF010001AF010001AF010001AF0100CC
:1000700001AF010001AF010001AF010001AF0100BC
:1000800001AF010001AF010001AF010001AF0100AC
:1000900001AF010001AF010001AF010001AF01009C
:1000A00001AF010001AF010001AF010001AF01008C
:1000B00001AF010001AF010001AF010001AF01007C
:1000C00001AF010001AF010001AF0100E45E0200D9
:1000D00000C00720BC010000C0C10720940400003C
:1000E00004207146084203D0EFF309800AF026BFCE
:1000F000EFF308800AF022BF704708B5014807F007
:1001000001FDFEE77258020008B5024807F0FAFC4C
:10011000FEE700BF7D58020008B5024807F0F2FC78
:10012000FEE700BF8858020008B5024807F0EAFC65
:10013000FEE700BF9358020008B5024807F0E2FC52
:10014000FEE700BFA058020008B5024807F0DAFC3D
:10015000FEE700BFAE58020008B50AF07FFB0AF0C8
:1001600021FCBDE808400AF08DBB0B4610B55C1AB7
:10017000944204D2441AE45843F8044BF7E710BD04
:1001800003461A1A8A4203D2002243F8042BF8E7E6
:10019000704716480AF088FC14480AF088FC144C92
:1001A000144B9C4207D294E803000C3454F8042CFE
:1001B000FFF7DBFFF4E7104B9C4206D254F8080B24
:1001C00054F8041CFFF7DCFFF5E70CF043FC0AF0E1
:1001D00085FC01F0C9FD02F071FD4FF416400AF0F4
:1001E000CBFF064807F08EFCFEE700BFE03F08208B
:1001F000CC000100D8000100E0000100C25802005C
:10020000144A70B51368014613B94FF08053136058
:100210001068114B4518114E2B44B34298BF104B38
:100220000C4C96BFC81825602060126898BF18460D
:100230000C4B9A4281BF0C4A064B00201A6039B120
:100240000A4A136801331360094B1860094B19609F
:1002500070BD00BFC4C10720FF7FFFEFFE3F071046
:1002600054C60720FF3F082000400820CCC10720CB
:10027000C0C10720C8C107200CF008BD0CF00EBD9E
:100280000CF00CBD10B504468AB068460CF0AAFF0D
:10029000204A214B2260089A2049A260079A626096
:1002A00052B90A681E4882428ABF02F1604202F1D6
:1002B0007042A2F5E82262606268B2F5803F82BFB8
:1002C00002F17042A2F5E82262600022E2600A6850
:1002D00013498A4205D8C3F1405303F50C239B1AF6
:1002E00009E010498A4207D8C3F1804303F580131F
:1002F0009B1A002B00DDE36020460B4BE2611B687C
:10030000A3610A4B1B686361094B1B6823610AB038
:1003100010BD00BF5406000054C60720C4C107200A
:1003200000800010FF3F0820C0C10720C8C107207F
:10033000CCC1072000207047FEE70000014B186089
:10034000704700BFD8C10720014B1860704700BF3D
:10035000D0C1072008B502480DF0D6FEFEE700BF69
:10036000D02F020008B502480DF0CEFEFEE700BF18
:10037000EA2F02000020704701207047F8B5084BB3
:1003800016461A680F461C4642B10D46EB1BB34297
:1003900004DA236815F8010B9847F7E73046F8BDF3
:1003A000D8C10720F8B5094B0F46186816461C46F9
:1003B00058B10D46EB1BB34205DA2368002098477D
:1003C00005F8010BF6E726EAE670F8BDD0C1072074
:1003D0007047002070470000074B1B689A688242F4
:1003E00007D05A68824204D0DB681B1A5842584131
:1003F00070470120704700BF40C1072000207047B0
:100400000020704730B504468DB0A8B3684608F0A8
:10041000B3FB9DF80030002503F03F0303939DF8E4
:10042000013003A803F03F0304939DF802300B95BD
:1004300003F01F0305939DF8043003F01F03069398
:100440009DF8053003F00F03013B0793BDF806301C
:10045000C3F30B03A3F26C7308939DF8033003F00E
:1004600007030993BDF80830C3F30B03013B0A935C
:100470000CF03EFD84E8210000200DB030BD0000EE
:1004800070B50F4D0F4E2C6814F0010415D128469D
:100490000AF038FF88B14FF40E70FFF7EDFE3023FD
:1004A00080F835323A2380F8344280F8363280F8CA
:1004B0003742306028460AF031FF306870BD00BF17
:1004C000F8C10720E0C1072070B50F4D0F4E2B6813
:1004D00013F0010416D128460AF014FF90B14FF42E
:1004E0000E70FFF7C9FE012380F83432312380F803
:1004F00035323A2380F8363280F837423060284669
:100500000AF00CFF306870BDF4C10720DCC1072081
:100510002DE9F047ADF50A7D0F4607F058FF041EA0
:1005200004DD0AF063F9204609F0F0FE0DF114082D
:1005300044462B4D0FCD0FC42B68102123600DEBCB
:10054000010200240AA8049409F00AFF2549814603
:10055000254A384608F080FD26460AAD4FF0000ACD
:10056000CA451ED06B69A34217D1AA69049B1644E1
:1005700023B16421B3FBF1F3B2FBF3F395F80CE084
:100580000094A98B02938900019103923846174980
:100590006A6858F82E3008F05FFD0AF1010A20352C
:1005A000DEE701340A2CD8D1049B64229E1BB3FBE6
:1005B000F2F30F490F4AB6FBF3F30096384608F002
:1005C0004BFD09F085FD102804D938460A49102250
:1005D00008F042FD01200DF50A7DBDE8F08700BF5F
:1005E00004300200233002004A3002004F30020083
:1005F0006C3002008B3002009630020010B50C46C1
:10060000ADF5007D68460AF001FC204669464FF0D2
:10061000FF3208F0EBFC01200DF5007D10BD00005D
:1006200030B50C4691B02C49054607F0DCFD00289A
:1006300047D008AB009309AB01930AAB02930BAB15
:1006400003930CAB04932846244906AA07AB07F092
:1006500032FD072801D000203BE09DF83930069A92
:100660000DA862F303038DF83930079A9DF83830EE
:1006700062F304038DF83830089ABDF83A3062F31B
:100680000B03ADF83A30099A9DF8363062F3040353
:100690008DF836300A9A9DF8353062F305038DF8EF
:1006A00035300B9A9DF8343062F305038DF8343001
:1006B0000C9A9DF8373062F302038DF8373008F05A
:1006C00083FA08F01DFB06490246204608F0C4FCE8
:1006D000012011B030BD00BFC0300200C4300200A4
:1006E00095500200F7B50D464F49044607F06BFEE2
:1006F000064640B107F09AF828464C494FF0FF32C1
:1007000008F074FC8CE02046494907F05CFE60B3B9
:1007100007F0B0F847490246284608F09DFC07F06C
:10072000B5F845490246284608F096FC07F0A8F8B7
:1007300042490246284608F08FFC304607F090F800
:100740000646012007F08CF80446022007F088F8DE
:100750000746032007F084F800970190384928469F
:100760003246234608F078FC5AE02046354907F027
:100770003AFD50B101212022204607F0D2FD20464B
:1007800007F023FE07F09EF94AE020462E4907F0C5
:100790002AFD064620B920462C4907F024FD60B307
:1007A00020462B4907F00DFD60B92046294907F086
:1007B00008FD28B92046284907F003FD044602E059
:1007C000032400E002242046314607F0D1F8234AF2
:1007D000234B002E18BF1A463CB1012C07D01D49EF
:1007E0001B4B022C18BF0B4602E01E4B00E01A4BBD
:1007F00028461D4908F030FC12E0204607F0E5FDD0
:100800001A491B4A009040F20B13012007F0BEF872
:10081000204607F0DAFD17490246284608F01CFC7E
:10082000012003B0F0BD00BFFF300200053102001F
:100830001E310200253102003A3102004F31020020
:100840006E3102009E310200A2310200AA31020084
:10085000FA300200F4300200FA420200E5300200F1
:10086000DD300200EE300200B3310200CC31020074
:1008700018300200FF31020030B589B004AB00240B
:1008800000930D460222194903AB0394049407F028
:1008900020FC022827D107AB009305AA03980499EE
:1008A00006AB05940694079403F0F6FC024638B1B3
:1008B000049B284600930E49039B08F0CDFB10E0F3
:1008C000059A069B002A079C08BF0122002B08BF3F
:1008D000012328460749B4FBF2F2B4FBF3F308F016
:1008E000BBFB012000E0204609B030BD924202006F
:1008F0000D3202002C3202002DE9F0470D46ADF515
:10090000856D3B49064607F0F8FC3A49814630467A
:1009100007F01CFD3749304607F038FD304607F038
:1009200054FD0122014681A805F0D6FC044640B1E1
:10093000304607F04AFD30490246284608F08CFB55
:1009400050E00DF1040A21464FF4007250460CF0BD
:10095000F1F900940AF046FAA04606460F4681A82F
:1009600051464FF400726B4605F04FFD08B9009BED
:1009700033BB81A805F021FFB9F1000F19D00AF0AF
:1009800031FA4FF47A7200230BF098FC00230446EE
:100990004FF47A72304639460BF090FC201A14BF9F
:1009A00003460123284615494246B8FBF3F308F0F5
:1009B00053FB284612494FF0FF3208F017FB11E0B5
:1009C0009844B9F1000FCAD14C46009B9C42C6D254
:1009D0002B681AF804105B6828464FF0FF329847DE
:1009E0000134F2E701200DF5856DBDE8F08700BF09
:1009F0005A32020092420200633202007732020051
:100A0000053802002DE9F0470023BEB00C465549D9
:100A100005460C9307F0D7FC20B9284607F0D5FC13
:100A2000064600E0504E15A8314605F07EFF05460B
:100A300020462DB14D4932462B4608F00DFB8CE087
:100A40004B49324608F008FBA8461EAF802315A884
:100A50000DA91397149305F0ACFF002865D19DF8FC
:100A60003D30002B61D09DF83C10DDF834C011F012
:100A7000100F09BF0C9B442263440C930ABF2D2224
:100A8000013508F1010811F0010F14BF52232D2385
:100A900011F0020F14BF4FF0480A4FF02D0A11F069
:100AA000040F14BF4FF053094FF02D0911F0200F20
:100AB000BDF8381014BF4FF0410E4FF02D0ECDF899
:100AC00008E04FEA612EBDF83A000EF2BC7ECDF888
:100AD0000CE0C1F3431E01F01F010591C112069104
:100AE000C0F345100DF13D01CDF810E0CDF820C068
:100AF00007900991CDF800A0CDF8049020461D493B
:100B000008F0AAFA20461C494FF0FF3208F05AFAC2
:100B1000394620464FF0FF3208F054FA204611497A
:100B20004FF0FF3208F062FA8FE700953EAD55F8BE
:100B3000C83D12494246204608F08EFA3046294602
:100B40000BAA05F065FF40B90B9B20469A780C9BD9
:100B50000B495A43520808F07FFA01203EB0BDE825
:100B6000F08700BF05380200923202009532020081
:100B7000B9320200D4320200013302000533020010
:100B80002F33020070B50D46064607F01EFC0446E2
:100B9000304607F01AFC05F0FDFF064A064B0749F0
:100BA000002818BF13462846224608F055FA0120AF
:100BB00070BD00BFEF340200E53402004333020091
:100BC00070B50D46064607F000FC0446304607F0B7
:100BD000FCFB05F082FF064A064B0749002818BFB8
:100BE00013462846224608F037FA012070BD00BFA0
:100BF000EF340200E53402005F3302007FB503AB3F
:100C0000002400930E4602220F4902AB0294039483
:100C100007F05FFA022814D1029D039C2846214662
:100C200006F062F8094B0A492A4600280CBF08461C
:100C30001846084900902346304608F00DFA012076
:100C400000E0204604B070BD92420200EF34020082
:100C5000E53402007133020030B5ADF50D7D0C4670
:100C6000054607F0B2FB0A22014603A805F034FB53
:100C700040B1284607F0A9FB1F490246204608F06C
:100C8000EBF935E08DF8070002901C4920467E22E2
:100C900042F2107308F0E0F92046194908F0DCF937
:100CA000236820461B680DF1070142F21072984735
:100CB00018B19DF807307E2B03D103A805F07DFD08
:100CC00016E003A80DF10701012202AB05F05BFC61
:100CD00010B9029B012B02D020460A49DEE72368A7
:100CE00020465B689DF807104FF0FF329847D7E722
:100CF00001200DF50D7D30BD89330200B0330200B7
:100D0000E8330200083402002DE9F047ADF5407DDC
:100D1000002304AC236003930D4600944249022251
:100D200003AB07F0D6F9022806D028463F494FF01A
:100D3000FF3208F05BF971E017A8216805F0F5FDB6
:100D400018B128463A49226807E017A8039905F028
:100D5000ECFD28B128463749039A08F07DF95DE09B
:100D600040A94FF4807205A807F074F90AA880A979
:100D70004FF4807207F06EF920AB159317A880230B
:100D80000FA9169305F015FE002841D19DF84530B6
:100D9000002B3DD09DF8443003F0100303F0FF0614
:100DA000002BE9D1039A0DF1450305A8224907F06C
:100DB00056FB22680DF145031F490AA807F04FFBB7
:100DC00005A807F002FB80460AA807F0FEFA0746CE
:100DD00005A8DDF83C9007F0F8FA82460AA807F06B
:100DE000F4FA3246014633460096504603F054FA70
:100DF000124A134BCDF8009000280CBF184610463D
:100E000010490190424628463B4608F025F9B3E7D1
:100E10000AA807F035F905A807F032F901200DF509
:100E2000407DBDE8F08700BF924202002F340200EF
:100E30007434020099340200B9340200EF34020025
:100E4000E5340200BF340200F8B50D4623490646DA
:100E500007F0B9FA0446074628B1FFF735FB002131
:100E600000F235200AE030461D4907F0ACFA04468E
:100E700050B1FFF705FB394600F235200A4605F070
:100E8000C3FF1849184B1EE03046184907F09BFA7B
:100E9000044648B1FFF718FB012200F2352105F0A6
:100EA000DDF91349134B0EE03046134907F08BFA76
:100EB000044680B1FFF7E4FA012200F2352105F083
:100EC000CDF90E490E4B002808BF19464FF0FF32EE
:100ED000284608F08BF82046F8BD00BF46350200D2
:100EE00050350200E8340200DE3402005D350200B5
:100EF00005350200F5340200663502002A3502008D
:100F00001C35020008B508464FF0FF32084908F0CA
:100F10006DF806F08BFC4FF4FA6009F0F7F94FF02A
:100F20008043AA221A7200221A70012008BD00BF55
:100F30007235020010B501200C4607F07FF838B179
:100F400000210A460B4608F05BFD2046044901E0FB
:100F5000204604494FF0FF3208F048F8012010BD48
:100F6000833502009935020038B5064C236833B941
:100F70001C20FFF781F9054607F006FD2560206873
:100F800038BD00BFECC107202DE9F04F0D46C7B0BA
:100F90005549814607F03EF954498246484607F0D4
:100FA00039F953498346484607F034F900270DF1D3
:100FB000100805AE044602970397C8F80070376022
:100FC000BAF1000F45D0009648464A4902AA03AB41
:100FD00007F071F8012807DC284647494FF0FF3237
:100FE00008F004F838467CE00DF118084FF48074DE
:100FF0004046394622460BF09DFE336813B9012363
:10100000336003E0B3F5807F88BF3460FFF7ACFF47
:1010100033689DF808109DF80C200093434608F0B3
:10102000E0F8364A364B3749002808BF13462846B1
:10103000029A08F011F8002433689C424ED2039AB9
:1010400018F80430224428462F4908F005F80134E6
:10105000F2E7BBF1000F2CD0CDF8008048462B49B9
:1010600002AA03AB07F027F8032807D0284628492F
:101070004FF0FF3207F0BAFF504632E0FFF774FF3F
:101080009DF808109DF80C2098F8003008F0BEF884
:1010900048B1039B284600931E49D8F80020029BC4
:1010A00007F0DAFF1AE028461B49029A07F0D4FF3E
:1010B00014E0A8B102230293029BFE2B10DCFFF781
:1010C00053FF9DF8081008F0ACF820B128461349EA
:1010D000029A07F0C1FF029B0233ECE7012000E017
:1010E000204647B0BDE8F08FB5430200D23502007C
:1010F000D8350200E1350200F0350200EF3402007D
:10110000E534020011360200353602004536020091
:10111000553602007C36020096360200B3360200D5
:101120002DE9F04F5F4C91B023680E4633B92C2067
:10113000FFF7A2F8054607F0BBFE25602768FFF71A
:101140009FF90DF1400B00244BF80C4D00F23520B7
:1011500059460CAA05F05CFC48B90C9A0D9C95699F
:101160009378023D5C435D4364086D0800E02546CA
:101170004D4B1A6898467AB90C20FFF77DF88146E6
:10118000FFF7F2FE902389F804300023C9F800002D
:10119000C9F80830C8F80090D8F8000003F06AF8E1
:1011A00080460BF045F882460AF09EFE0146404616
:1011B0000AF0E4FD3D490AF0EBFE0BF039F88146F8
:1011C000584609F081FC03F0A3FF50B307F012FE6C
:1011D00003F088FF0023024698469B4693420DD0B9
:1011E00018460B920A9303F0E1FF0A9B584588BF0B
:1011F00098460B9A88BF83460133EFE707F012FE4B
:10120000642303FB0BF32A4A3046B3FBF2F3C3F12A
:1012100064038DE80809274922462B4607F01CFF86
:1012200005E03046244922462B4607F015FF234CA3
:1012300023681BB90120FFF71FF82060206802F027
:10124000DDFF044607F05CFD9DF83930019003F0A6
:101250000F0302939DF83830009403F01F030393AB
:10126000BDF83A303046C3F30B0304939DF8363093
:10127000134903F01F0305939DF83530524603F0E0
:101280003F0306939DF8343003F03F030793BB8C74
:101290000893FB8C09934B4607F0DEFE012011B04A
:1012A000BDE8F08FF0C10720E4C107200000204115
:1012B000A0860100D93602000D370200E8C10720E0
:1012C0001B37020070B5ADF50A7D05460C4606F0E9
:1012D000E9FE0B2803DD204620490C2237E0284692
:1012E00007F073F80122014601A804F0F5FF064655
:1012F00038BB01A805F061FA284607F066F81849DE
:101300000246049B204607F0A7FE236820469B6800
:1013100098470A2008F0FAFF09F0FAFA284607F081
:1013200054F802460F4B0068516803C390680E4A98
:10133000186043F80C2C4FF08043AA221A721E70DA
:1013400007E0284607F041F802462046074907F023
:1013500083FE01200DF50A7D70BD00BF98370200A5
:10136000BF370200484002400DD0ADDE0638020013
:10137000F0B5404CA5B023680646DB070D460CD4FB
:10138000204609F0BFFF40B14FF480600BF07EFCB7
:10139000394B1860204609F0C1FF3046374906F046
:1013A00039FF0746044610B30021802204A80BF041
:1013B000C1FC00230293039303AB0093304904AABA
:1013C00002AB304606F077FE2B4A029B116804A858
:1013D000039A13B903F000F801E003F020F8034684
:1013E000284A29492846002B18BF114637E03046C5
:1013F000264906F00FFF0746002838D0304604ABD8
:10140000234903AA039404948DF8084006F053FE80
:10141000039E049B3344B3F5806F0DDD28461D49C0
:101420004FF4806221E0144B9DF808201B689A5508
:101430009DF8083001361C44039B049AF31A93422A
:1014400010DAB6F5806F0DDA2B6828461B6802A902
:101450004FF4FA6298470028E5D128460E4907F074
:10146000FBFD04E0284622460C4907F0F5FD38460E
:1014700025B0F0BD00C20720FCC1072031380200B2
:10148000383802001F3802001B38020048380200BA
:101490004F380200593802007D3802008D380200B2
:1014A00030B50C46054687B00A4907F0D5FDA17A4C
:1014B00062880091E17A23880191E18828460291AF
:1014C00021890391A1880491034907F0C5FD07B064
:1014D00030BD00BF9E380200D43802001FB501A8FD
:1014E0000C4602F02FF901F019FE01A90246204630
:1014F000FFF7D6FF012004B010BD00002DE9F04138
:101500008CB003AB002400930E4615463A490222E4
:1015100002AB0294039406F0DCFDA04239DD029890
:101520000BF0A9F95FFA80F8039818B10DF0C7F82D
:10153000C4B200E0044604A8002102F08BFC30B1E4
:1015400030462E494FF0FF3207F050FDF3E70035EB
:1015500018BF01250223009340462946039A2346DB
:1015600001F012FF074638B9304625494FF0FF32E7
:1015700007F03CFD01273BE0002D39D004A84FF4D3
:101580007A7102F071FC70B39DF8103043452AD196
:1015900001E027462CE09DF817300C2B04D1304693
:1015A00006A94246FFF77CFF3046B4B9154907F05B
:1015B00053FD9DF817309C420ADA336804AA22448E
:1015C000117A5B6830464FF0FF3298470134F0E7FC
:1015D00030460D4907F040FD0AE00C494FF0FF325C
:1015E00007F004FD04E030460949029A07F034FD93
:1015F00038460CB0BDE8F08192420200F238020099
:10160000143902003C390200873F020050390200C1
:101610006D39020038B50D4606F0D9FE0446C0B259
:1016200001F070FD054A064B0649002808BF134625
:101630002846224607F010FD012038BD93390200EC
:10164000E53402009A39020037B50C4601F0DEFE9F
:1016500005461649204607F0FFFC154920462A4654
:1016600007F0FAFC2046114907F0F6FCD5B1114904
:10167000204607F0F1FC20460C4907F0EDFC002560
:10168000E8B201F0ADFE013540B1817802784378CF
:1016900000912046084907F0DFFCF1E720460349A6
:1016A00007F0DAFC012003B030BD00BFB139020001
:1016B000CC390200E6390200013A020030B58BB0A5
:1016C0000AAA4FF47A730C4642F8243D174906F0F3
:1016D000F2FC002502A8019902F0BCFBD8B120461B
:1016E00013499DF8082007F0B7FC00259DF80F303E
:1016F0009D420ADA236802AA2A44117A5B682046CE
:101700004FF0FF3298470135F0E72046094907F0CE
:10171000A3FC0125DEE72DB9204607494FF0FF3233
:1017200007F064FC01200BB030BD00BF563802004A
:101730001C3A020004380200333A02002DE9F34754
:101740003C4C074626688946002E62D12420FEF7CD
:1017500093FD0423054680E848008660C66020218A
:1017600030460CF03BFDAE68E8604FEA8608072E75
:101770000ED81020FEF780FD8246002110220BF0CB
:10178000D9FAEB68013643F808A008F10408EEE73F
:10179000002608234FF001086B6085F8208028465A
:1017A0002549264A264B0096256005F0BBFD20689A
:1017B0002449254A254B009605F0B4FD20682449AC
:1017C000244A254B009605F0ADFD20682349244AA4
:1017D000244B009605F0A6FD20682349234A244B9C
:1017E000009605F09FFD20682249234A234BCDF83F
:1017F000008005F097FD20681E49214A214B009684
:1018000005F090FD009620681F49204A204B05F006
:1018100089FD38461F4906F0D6FD18B138461E49E5
:1018200006F08BFE39464A46206802B0BDE8F04714
:1018300005F05ABE08C20720E91A0100443A020026
:101840004B3A0200BD180100853A02008E3A0200B0
:10185000BD160100E23A0200E53A02001516010049
:1018600067400200083B0200491601004E3B02009F
:10187000323B0200FD140100973B0200553B020081
:10188000963B02009B3B0200DD140100DB3B0200A3
:10189000C03B020005380200E13B020038B5064CAF
:1018A000236833B95820FEF7E7FC054607F044F9F2
:1018B0002560206838BD00BF04C207202DE9F04F25
:1018C0000446ADF2DC5D80220DF1B40988460DA816
:1018D00000210BF02FFA0021802248460BF02AFA53
:1018E00006AE002333602046009675490DAA4B468C
:1018F00006F0E1FB032801D00020DDE0EDA80DA9F2
:10190000012204F0E9FC05460028F5D1FFF7C6FFE7
:1019100033684DA980F853308022044608A88DF81A
:101920001750079506F096FBCDF8009040466549A4
:101930000DAA336807F090FB2F46EDA86DA94FF470
:10194000007207AB04F061FD38B1EDA804F035FF7B
:1019500008A806F095FB0120AEE0079B002BF4D011
:101960006E1C5949079A204607F076FB23682046EB
:101970009B6898476DAB9B46751E4FF0000A079910
:10198000C3EB0B028A4222680FD20393CDF808B052
:10199000D2F804C020464FF0FF321BF8011BE0478D
:1019A000029B1A78039B9244E9E793682046984784
:1019B00008A806F00AFD834608A806F076FB4FF457
:1019C0007A7302465946204607F01EFB0121202269
:1019D00008A806F0A6FC08A806F0F9FC504520D09F
:1019E00008A806F0F4FC394903465246404607F081
:1019F00033FB2046364907F02FFB236820469B68BF
:101A00009847236820461B680DF117014FF47A723E
:101A100098470028F5D1022E06F1010395D81E46FD
:101A20009FE7079B2B494A46009320463B4607F019
:101A300013FB236820469B68984708A806F0C5FC5E
:101A4000824608A806F031FB514602464FF47A73ED
:101A5000204607F0D9FA08A81F4906F0B2FBD0B912
:101A600008A806F0B2FC1D490246404607F0F4FA09
:101A70002046174907F0F0FA236820469B689847EC
:101A8000236820461B680DF117014FF47A729847BE
:101A90000028F5D1BFE708A8114906F04EFD079BC5
:101AA00040461F440F493A46F09B07F0D5FA002DF7
:101AB0003FF443AF013D40E70DF2DC5DBDE8F08F40
:101AC000E63B0200F53B02000C3C02001E3C02001B
:101AD00004380200453C02005B3C02005E3C020010
:101AE00005380200963C02002DE9F041074686B019
:101AF00006AA002442F80C4D0E463C4906F0DBFADB
:101B000038460121202206F00CFC039B002B63D0F9
:101B1000384606F0C7FA00285ED0FFF7BFFE05463C
:101B20008DF80B402B6828461B680DF10B01052230
:101B3000984704460028F5D1039B384685F8533072
:101B400006F043FC274601464FF0FF32284607F0D7
:101B50004DFA2B6828469B689847254B05941868D2
:101B600004902B6828461B680DF10B014FF47A7224
:101B7000984778B10DF11501032205A80BF0BFF8C5
:101B80009DF80B8005A804A904228DF817800BF09E
:101B90009BF838B91822B7FBF2F302FB137262B15B
:101BA00001330AE0336830465B6841460122013761
:101BB00098470028D5D10134D3E730460D493A463D
:101BC00007F04AFA74B16123009330460A4922466D
:101BD0000A4B07F041FA05E0304609494FF0FF3261
:101BE00007F004FA012006B0BDE8F0815638020083
:101BF0009A380200A23C0200C93C0200823D020069
:101C0000BE3D020001480CF07FBA00BFEA3D020071
:101C100038B504460D4609F05DFA074BB0FBF3F00A
:101C20000223B0FBF3F2954201D3236138BDB3F533
:101C3000807FFAD00233F4E740420F007FB500F214
:101C400035260C460122314604F008FB054650BB00
:101C500004A941F8040D02AA304604F0D9FE00BBE5
:101C6000029A039B9078926903FB00F1023A424387
:101C70005208B2F5004F104834BF01254FF480657B
:101C80004FEA51010D4BB1FBF5F128BF0346B2FB02
:101C9000F5F28DE80A000A4821460CF0BFF9012050
:101CA00008E0084B00E0084B084821462A460CF0A3
:101CB000B5F9002004B070BD283E0200253E0200A8
:101CC000323E02002B3E02002F3E0200603E020028
:101CD00038B5074C23684BB90820FEF7CDFA054606
:101CE000FFF742F9402328602B712560206838BD3A
:101CF00014C2072038B5054C256825B90120FEF728
:101D0000BBFA05702060206838BD00BF10C20720F4
:101D100038B5084C23685BB90C20FEF7ADFA0546D0
:101D2000FFF722F990232B7100232860AB60256018
:101D3000206838BDE4C1072010B5044C23681BB9E6
:101D40000120FEF799FA2060206810BDE8C1072045
:101D500010B5044C23681BB90120FEF78DFA2060F2
:101D6000206810BD0CC20720AD49AE4A4023F0B533
:101D70008B614FF0007393614FF480338B61AA4BFA
:101D8000ADF5057D1868072520F0F000186018688B
:101D9000022440F050001860186820F44050186089
:101DA000086840F040000860186820F47C20186043
:101DB000186840F428201860186820F47000186033
:101DC000186840F420001860186820F0404018603F
:101DD000186840F000401860586820F03C005860D7
:101DE000586840F028005860586820F00300586098
:101DF000086840F480300860586820F4405058600B
:101E0000086820F480000860D96821F44031D96066
:101E1000116841F080711160596821F440215960C6
:101E2000596841F48021596098688049014099605F
:101E3000116841F4897141F001011160996821F440
:101E400070119960996821F070419960116821F4CE
:101E500046411160D96821F03001D960D96841F05C
:101E60003001D960D96821F47011D960136843F04A
:101E700000731360136823F08063136006F0B6FBF1
:101E80000A20012108F046FF0A20012108F05AFF2C
:101E90006748012105604460FFF7BAFE06F03AFF8B
:101EA0001520012108F036FF1520012108F04AFF16
:101EB0006048012105604460FFF7AAFEFFF754F86F
:101EC000642106F02BFD10B95B480CF01DF908F0F9
:101ED0005FFF01F099FF10B958480CF015F94FF465
:101EE000FA6006F041FBFFF78DFE09F0F3F809F008
:101EF000F7FF53490AF000F909F078FE02460B4655
:101F000050480CF08BF808F0D9FD052804AC14D12A
:101F1000002363604C4B1B682360FFF773FE4B4B41
:101F20004B48D96C1A6D5B6D00940CF077F8FFF795
:101F300069FE41F2883006F017FBFEF7A1FA454929
:101F4000FFF77CFE054668BB43480CF067F803F0DA
:101F500057F9FEF795FA29462A4600F2352004F093
:101F600053FF3E4B3E4A00280CBF104618460CF06B
:101F7000CBF8FEF785FA3749FFF760FE90B939488C
:101F80000CF0C2F803F0BEF8014637480CF046F8F2
:101F900003F0A8F8054603F0B5F805FB00F1334857
:101FA0000CF03CF8324E334F336813F0010516D174
:101FB000304609F0A7F990B14FF40E70FEF75CF9C6
:101FC000012380F83432312380F835323A2380F807
:101FD000363280F837523860304609F09FF926498A
:101FE0003868264DFFF72AFE11481821FFF710FE2A
:101FF000FFF708FE2B684BB90820FEF73DF90646AF
:10200000FEF7B2FF3823306033712E60286802F08B
:1020100009F80546B0BB1A480CF076F833E000BF6B
:1020200000C0092020C0092000C00240F0FCFCFFD5
:102030000000034000800840A43E0200D53E02009C
:1020400000247449FA3E020044400240004002402D
:10205000123F02008A3F0200923F0200983E0200B7
:10206000933E0200CF3F0200EE3F0200FD3F020020
:10207000F4C10720DCC10720143502001CC2072070
:10208000184002000125FFF743FE02F0C9F806469A
:1020900018B972480CF038F83546FFF719FE02F00F
:1020A00041F8064618B96E480CF02EF835466D4ECC
:1020B00033681BB90120FEF7DFF83060306801F0AB
:1020C000FFFFFFF739FE02F097F8FFF713FE02F06B
:1020D00063F8FFF73DFE02F094F8FFF70BFE0021D6
:1020E00002F05CF88DB9FFF78DFDFFF7F1FD2D21B2
:1020F00002F000F8FFF7ECFD2D2102F007F8FFF7E2
:10210000F9FDFF2102F04AF80CE0FFF7E1FD05467A
:10211000FFF7FEFD02F0AEF80AF0B0F8C1B22846B3
:1021200002F01CF80021102220460AF003FE4E485F
:1021300021460F22002302F02CF980B920460AF034
:102140009AFBC5B2284600F0DDFF484A484B2946B5
:10215000002808BF13464748434A0BF05FFFFFF7CC
:10216000EBFD02F04BF8054600200DF04DFA284437
:102170000BF0D2FF4FF40072002120460AF0DAFD86
:10218000204608F043FE21463B480BF047FFFFF78F
:1021900039FD8022002120460AF0CCFD204602F0C5
:1021A0008DFF2278FF2A04D0214634480BF036FFF9
:1021B00029E0FFF7CDFD02F027F809281DD13048AE
:1021C0000BF0A2FF21462F480CF0DAF821462E48EA
:1021D0000BF024FF2D480BF097FF00232C4803A998
:1021E00003930CF0CDF89DF80C30592B03D1204609
:1021F00002F042FF07E0274803E027480BF084FF86
:1022000026480BF081FF4FF208031C684FF20C03C5
:102210001D684FF210031E684FF2040319684FF453
:1022200070431A68A40AAD0A1D480BF0F7FE224657
:1022300029461C480BF0F2FE31461B480BF0EEFE1F
:10224000FFF7E0FC012005F027FB18480BF05CFFCE
:10225000FFF7D8FC0DF5057DF0BD00BF334002004F
:102260004D40020018C20720664002009339020068
:102270009E3E02006C40020095500200A040020009
:10228000BC400200DE400200E3400200FE400200CB
:1022900041410200454102005D4102008B410200C4
:1022A000BD410200E9410200164202003342020031
:1022B00001207047012070470120704710B5044C81
:1022C00023681BB90120FDF7D7FF2060206810BDEF
:1022D00018C2072001207047F8B504460E46C068B2
:1022E00089000BF07BFFA568E060AF00B5420BD220
:1022F0000C20FDF7C1FF0023036043600372E36815
:102300000135D8510437F1E76660F8BD38B50446A9
:102310000F4B00250360636DE06D9D4205D250F8C0
:102320002500FDF7ABFF0135F5E708B1FDF7A8FF84
:102330000025A36B206C9D4205D250F82500FDF7C7
:102340009DFF0135F5E708B1FDF79AFF204638BD3E
:102350007042020010B50446FFF7D8FF2046FDF793
:102360008DFF204610BD0000F7B5044600250B4642
:102370004FF480520095254905F046FE244B042673
:1023800023606663A563E563256404F134000221DC
:10239000FFF7A2FF26656565A565E565284660210E
:1023A0000BF01CFFA56DE065AE00172D0CD81020BA
:1023B000FDF762FF0746002110220AF0BBFCE36D27
:1023C00001359F510436F0E718236365012384F833
:1023D0007030104E0023A4F87430A4F87630A36750
:1023E000002200230027C4E92023C4E9226708F063
:1023F000F9FC4FF47A72002309F060FF80197941EB
:10240000C4E92001204603B0F0BD00BF88420200AD
:1024100070420200C0D401002DE9F04191E8600053
:102420000F7A14468FB1082A23D1304605F03AFEC0
:1024300000281CDD284614494FF0FF3206F0C2FD8B
:102440003046012105F02DFF08E00A2A19D00D2A97
:1024500012D03046214606F045F897B12B68284641
:102460002146BDE8F0415B684FF0FF321847072472
:10247000F4E70A2A02D1F1E7BDE8F0810D2AE8D19C
:10248000ECE7BDE8F08100BF91420200F8B50446D8
:10249000142015460F46FDF7EFFE8021064605F095
:1024A000D1FFA36BE26B9A4206D3616B591803D23A
:1024B00004F13400FFF710FFE36B226C591C52F853
:1024C0002330E1631F605E601D72F8BD2DE9F043AB
:1024D000CF6B85B006460D4601AC4FB94FF47A700C
:1024E00007F014FF204639460C220AF023FC47E08F
:1024F0000B6C1B6893E8070084E8070000238DF845
:10250000033007F0CDFD80460027EB6B9F4263D27E
:102510002B6C4FEA870953F827301868037C33B1D6
:1025200003680DF103011B680022984708B90137C1
:10253000EBE7EB6B9F422BD22B6C53F8093093E8FF
:10254000070084E807009DF8032028462146FFF78E
:1025500063FF08F047FC4FF47A72002309F0AEFEE7
:10256000D5E9222380185941C5E92001029805F0D8
:1025700099FD0746029805F098FD013887420ADB6D
:1025800094E8070086E80700304605B0BDE8F08310
:1025900005F14403D3E7D5E92223134324D008F0FF
:1025A00021FC4FF47A72002309F088FED5E920233C
:1025B000994208BF904217D308F014FC4FF47A7286
:1025C000002309F07BFED5E922238018594100231E
:1025D000C5E920010193D3E707F062FD4045C5D16D
:1025E000022007F093FEC1E79DF803300A2B88D143
:1025F000C6E70000F0B5064685B020480BF00EFD9A
:1026000001A83146FFF762FF019C1CB91C480BF082
:102610007BFD30E0029F384605F044FD00282ADDAE
:1026200008F0E0FB0546F8B1B6F8743006F150004A
:102630000133A6F874303946224604F055FF114B99
:1026400000261868009023681DF806105B68204675
:102650004FF0FF3201369847042EF4D108F0C2FB48
:10266000411B09480BF0DAFC384605F020FD2368D1
:1026700020469B689847012005B0F0BD94420200B7
:1026800005380200614202009A42020038B5064C49
:10269000236833B92C20FDF7EFFD054606F008FC52
:1026A0002560206838BD00BFF0C1072010B5044682
:1026B000FFF7ECFF03682146BDE810405B684FF070
:1026C000FF32184713B5002302AC04F8013DFFF7B1
:1026D000DDFF036821461B684FF0FF3298479DF8E5
:1026E000070002B010BD00002DE9F04100F15004D8
:1026F0008AB000250746009520465B495B4A5C4B43
:1027000004F010FE009520465A495B4A5B4B04F0EA
:1027100009FE009520465A495A4A5B4B04F002FED6
:102720000095204659495A4A5A4B04F0FBFD009542
:1027300020465949594A5A4B04F0F4FD0095204669
:102740005849594A594B04F0EDFD00952046584927
:10275000584A594B04F0E6FD009520465749584A1F
:10276000584B04F0DFFD009520465749574A584B17
:1027700004F0D8FD009520465649574A574B04F0BF
:10278000D1FD009520465649564A574B04F0CAFDE4
:10279000009520465549564A564B04F0C3FD009516
:1027A00020465549554A564B04F0BCFD009520463D
:1027B0005449554A554B04F0B5FD009520465449FF
:1027C000544A554B04F0AEFD009520465349544AF7
:1027D000544B04F0A7FD009520465349534A544BEF
:1027E00004F0A0FD009520465249534A534B04F093
:1027F00099FD009520465249524A534B04F092FDF0
:10280000009520465149524A524B04F08BFDFFF788
:102810003DFF4FF480734FF416412022054606F029
:1028200027FB804601262E744B48FDF78DFD4B4853
:10283000FDF784FD384629463246FFF727FE03A9F7
:10284000082205A805F006FC05A8454905F075FE17
:1028500005A92A46204604F047FE05A805F010FC0D
:1028600040460AB0BDE8F08111050100FA420200BD
:10287000B0420200FD050100E7420200EF42020003
:10288000211101000D430200FF4202002106010058
:102890005543020014430200F90801005A430200A4
:1028A0005E43020079080100FD430200BA430200C2
:1028B000090D0100FC43020000440200050A01006A
:1028C0004B4402004E440200850B01007C44020090
:1028D00082440200FD0B0100A7440200AA4402004A
:1028E000590C0100995C0200D7440200C10B0100A1
:1028F000FC440200FF440200890F0100224502004F
:1029000026450200490E0100F94502000146020079
:10291000050F0100444602004B460200E506010097
:102920005E46020062460200350F01006147020068
:10293000674702003D170100F13E02008F47020089
:1029400071130100AD480200B9470200C512010031
:102950005735020076480200C5260100AD26010069
:10296000E13B020008B500F03BF9012008BD012061
:102970007047704700F052B97047704770470000C9
:1029800008B5064B002118684FF0FF320B4607F0E0
:102990000BF910B1FFF7EDFFF3E708BD24C20720E4
:1029A00008B5064B002158684FF0FF320B4607F080
:1029B000FBF810B1FFF7DEFFF3E708BD24C20720E4
:1029C00008B5064B002198684FF0FF320B4607F020
:1029D000EBF810B1FFF7D0FFF3E708BD24C20720E2
:1029E00008B5064B0021D8684FF0FF320B4607F0C0
:1029F000DBF810B1FFF7C1FFF3E708BD24C20720E1
:102A0000FFF7B0BFFFF7B3BF10B50446FDF736FCC4
:102A1000204610BDF0B506462C4B85B000241A6840
:102A200000942B490D2305F0EFFA2A4B0125336062
:102A3000F561214634622846032206F0B0FF264F96
:102A4000214638600322284606F0A9FF2146786017
:102A50000322284606F0A3FF2146B8600322284639
:102A600006F09DFF1D4BF8601D680523C5F38F051B
:102A70008DE818002A462346029403941849194801
:102A800007F000FA06238DE818002A462346029430
:102A900003941549154807F0F5F907238DE8180048
:102AA0002A462346029403941149124807F0EAF992
:102AB00008238DE81800029403940F492A46234600
:102AC0000E4807F0DFF9304605B0F0BDD4480200EB
:102AD000E84802009049020024C20720D0480200C2
:102AE000F348020081290100F7480200A1290100F2
:102AF000FC480200C129010002490200E12901004D
:102B000070B50D461A4B002453F8216019494B5DEE
:102B10000133DBB2934202D04B55204670BD4C5579
:102B2000304621462246234607F03EF80146B8B11A
:102B3000114B53F8255028460BF0E6FA28460BF0C7
:102B4000BEFD2346024629460C4801F068FC0C4AAB
:102B50000C4B9A644FF08043AA221A721C7004E056
:102B600030460A460B4606F04BFF012070BD00BF01
:102B700024C2072020C20720D848020009490200C9
:102B8000EFBEADDE0040024010B503210122044635
:102B9000FFF7B6FF80B1204602210A22FFF7B0FFFF
:102BA00050B1204601210A22FFF7AAFF20B120469A
:102BB00000210A22FFF7A4FF012010BD08B5064B33
:102BC000186820B100210A460B4606F0B2FF034BFD
:102BD00001221A7008BD00BF38C2072044C2072076
:102BE00010B50B4C00210B4A022005F07FFE204659
:102BF00001F099F9204601F0AEF9002103220120ED
:102C000006F0CDFE044B1860003018BF012010BD47
:102C10003CC20720BD2B010038C2072070B5134D00
:102C2000134E2B7832780133DBB22B7042B105247E
:102C3000B3FBF4F404EB84041B1B13F0FF040DD06E
:102C40000C4B002118680A460B4606F0ADFF012820
:102C50000AD1BDE87040084801F083B9064801F088
:102C60007AF934702C70EBE770BD00BF34C20720D6
:102C700044C2072038C207203CC2072010B5064CCA
:102C80004021204601F020F92046BDE810400349CC
:102C9000034AFDF74FBB00BF3CC20720CD3F0100F8
:102CA000D4C10720704708B501F0E8F8012008BD3D
:102CB00010B50446FDF7E2FA204610BD37B5902066
:102CC000FDF7DAFA04460321FFF74EFB204605F034
:102CD0006BF93420FDF7D0FA054600244FF400725A
:102CE0000D490094042305F08FF90C4B28462B6006
:102CF00005F05AF93420FDF7BFFA0546FFF78AFEC2
:102D0000284605F051F92046214605F05BF94FF0C1
:102D1000FF3003B030BD00BFF13E0200D0490200D9
:102D2000242310B503FB010188420BD043783BB14B
:102D3000038CD4184FF6FF73A34228BF23460384A5
:102D40002430F1E710BD000037B5002302A840F899
:102D5000043D0C4B04215B6898470B4B019A1C689F
:102D60000546141B1A60094822460421FFF7D8FFC4
:102D7000074802212246FFF7D3FF281C18BF012075
:102D800003B030BD48C2072014C307205CC207202F
:102D900037C3072008B50B4B197803788B420A4BD1
:102DA0000BBF1A889A880132013214BF9A801A80A8
:102DB000064B8170DB6820219847003018BF012046
:102DC00008BD00BF05C0072004C3072048C2072074
:102DD0000A4B02781B789A42094B0BBFDA881A8992
:102DE000013201320CBFDA801A810379C3F3C202C7
:102DF000073262F3C5030371FFF7CCBF05C007209C
:102E000004C3072010B5002306499A0011F8234097
:102E1000844201D1881810BD0133042BF4D1002065
:102E200010BD00BF25C3072070B1C3780133DBB2EA
:102E3000FF2BC37008D10023044A1A44D17804330D
:102E40004908102BD170F7D1704700BF25C3072068
:102E5000242202FB01010346024630B58A4206D015
:102E60001446243212F8235C002DF7D10FE00446FB
:102E700000258B420BD01A79C2F3C2001A8C42EAA9
:102E8000004295423CBF1C4615462433F1E72046DC
:102E900030BD000038B50546C90001F10804FFF750
:102EA00053FF1C4B1A782B789A4204D102211A48FE
:102EB000FFF7CEFF0CE019480421FFF7C9FFEB78BC
:102EC00033B990F82330042443F0800380F8233092
:102ED000002380F8203080F8213002462B4690F8FD
:102EE000231080F8224021F07F01C4F306240C4314
:102EF00080F8234005F1200153F8044B8B4242F83F
:102F0000044BF9D1064A0379127862F3C5030371C1
:102F100038BD00BF05C0072037C307205CC20720AB
:102F200004C0072010B5FFF76DFF0446F8B9FFF79E
:102F300069FF0446D8B90F4BDA79D9788A4228BF9D
:102F40000A46D97A34BF1C1D1C4691422CBF11463B
:102F5000094CDA7B094B8A4238BF1C4604222046C2
:102F6000002109F0E7FE064AD37A0133D3722046E6
:102F700010BD00BF25C307202DC3072031C3072084
:102F800004C307202DE9F04105460C464FF0240804
:102F900008FB02188E1D444500F09E8094F82330F3
:102FA0001A0625D5BDB12A7861788A4205D16F7895
:102FB00016F8060C874200F09180E87858B16878DE
:102FC000884208D116F8061C914204D1A979A27949
:102FD000914200F0838094F82220218C03F07F033B
:102FE00042EA0323994274DB2046FFF7D3FE75E0E3
:102FF0006278002A6DD06DB3297901F0C001C02933
:1030000017D116F8060C6978884202D128789042C8
:1030100064D0E778A87887420CD191420AD116F89B
:10302000060C2978884205D1A079A979884201D176
:1030300054E079B1A878E17888420BD1697891425F
:1030400008D116F8060C2978884203D1A079A9790D
:10305000884249D094F82210208C03F07F0341EA83
:103060000323984235DB002384F8203084F8213094
:103070002379C3F3C201CFB21FB12046FFF7A8FEE8
:1030800027E003F0C003C02B19D01C4B16F8060C28
:103090001B78984213D1E378934210D07BB16379C7
:1030A000032262F307136371E1702046FFF790FE7D
:1030B000134A2379127862F3C503237100E00127D4
:1030C0006078FFF79FFE18B10021042209F032FE5C
:1030D00027B9243424365EE7BDE8F081204600217C
:1030E000242209F027FEF4E72279002363F3C502C6
:1030F00084F8203084F821302271EAE705C00720E7
:1031000004C00720431EDBB2FD2B9DBF024B18708D
:1031100001200020704700BF05C00720014B187830
:10312000704700BF05C0072007289CBF014B1870DF
:10313000704700BF04C007202DE9F74304469146BD
:103140001E469DF828500F46002963D0354B93F852
:103150000080414560D00F2E5ED800285ED020222E
:10316000002109F0E7FDFF2F237914BF09F00302C6
:10317000002262F38713032262F302032A4A677074
:10318000127884F8008062F3C503284A237113780B
:1031900084F802800133DBB21370A3710BAB01938F
:1031A00015B94FF0010818E0019AE079134652680A
:1031B00053F8081B00EB02085FFA88F8013DB8F1EC
:1031C000180F0193EDB206D80830204409F08CFDA9
:1031D00084F80780E4E74FF00008DFF854900123FB
:1031E000384689F80030FFF70DFE0546FFF71CFE54
:1031F000002389F80030637925B966F307136371FA
:10320000E57005E0AA7862F3071363716B78E370E9
:10321000404603E0084601E00020FFE703B0BDE8B8
:10322000F08300BF05C0072004C0072035C3072076
:1032300010C30720124B012270B51A7004461E46B7
:1032400008B9002518E0FFF7A5FD05460028F8D0CD
:10325000237903F0C003402B06D0C02B0AD1E378BA
:1032600053B162789A4207D0617920460909FFF785
:1032700011FE01E0802BF7D000233370284670BD8B
:1032800010C3072082B0F0B51746421ED2B28DB0EF
:10329000FD2A04460D46139301D900205AE0002B65
:1032A000FBD0159B002BF8D0179B002BF5D0169B5D
:1032B000002BF2D0149B002BEFD00021482228488D
:1032C00009F038FD00219022264809F033FD002145
:1032D0001022254809F02EFD00210C22234809F078
:1032E00029FD00210C22224809F024FD214E224B09
:1032F0001C703446214B1D7013AD0FCD0FC42B68CD
:10330000002118221E48236009F014FD39461C488C
:1033100017220BF018FA0020B368014698470028DE
:10332000BBD09DF8603013B9FFF70EFD12E0154ACF
:103330000123019206220292009304A8FF21002299
:10334000FFF7FAFE0028A8D004A8FFF773FF0028B3
:10335000A3D0E9E70DB0BDE8F04002B0704700BF70
:1033600037C307205CC2072025C3072019C30720E5
:1033700004C3072048C2072005C0072018C3072040
:10338000ECC20720E849020030B5182B8DB0054685
:103390000C4615D8B2FA82F1181C18BF0120490951
:1033A00081420DD08DE80D00294604A822469DF8E3
:1033B0004030FFF7C1FE18B104A8FFF73BFF00E063
:1033C00000200DB030BD13B50446107852790B467D
:1033D0001209009203212246FFF7D6FF02B010BD6A
:1033E00000231A4630B5084C990014F823502DB12B
:1033F000904201D1601830BD0132D2B20133042BAA
:10340000F1D1002030BD00BF25C30720002318469E
:10341000044A12F823200AB10130C0B20133042B50
:10342000F6D1704725C307202DE9F04188B06846E2
:103430000021202209F07EFCA14B1B7803F0FF0441
:10344000002B40F03A819F4E68463369202198470F
:10345000002800F083809C4D6B8801336B80FFF760
:10346000D5FF9DF80420A87202F00703032B04D0B7
:10347000964A137843F0010309E0954B1D789DF8B7
:103480000230AB4205D1914A137843F00203137026
:10349000E3E0C2F3C2029DF800E09DF80600D7B257
:1034A0008C4904EB440313F801C0F4450AD10B44E2
:1034B0005978814206D199780124CF1B18BF012782
:1034C0009A7018E00134042CEAD183490B689A7091
:1034D000804A587002F10900834283F800E040F00E
:1034E000C9800A609DF800009DF80230834240F0D8
:1034F000C480002427469DF80200FFF713FD9DF8C5
:10350000022002709DF80220427000228270FFF7B4
:103510008BFC04B117B39DF80030AB4200F09C80E7
:103520009DF80170FF2F1BD1336868462021984712
:1035300020B9664A137843F0040313709DF80530F0
:1035400003F00F02511C61F303038DF80530C3F340
:1035500003139A4202DA6846FFF71CFC00247CE061
:10356000BD422BD164B99DF807304BB13368684632
:103570002021984720B9554A137843F0040313706B
:103580009DF8043003F0C003402B12D19DF80730A2
:1035900013B95248182108E04B480C216A46FFF73E
:1035A00012FF002858D1002001466A46FFF70BFFA2
:1035B00052E09DF80330002B4ED1F4E7484B1B78C6
:1035C000002BCBD09DF8054004F00F064FEA1418ED
:1035D0004645C3DA013666F303043846FFF712FCAA
:1035E0008DF805409DF80340A5421ED19DF80410BA
:1035F00001F0C001402906D0A1F180035A425A418E
:10360000144618B91BE00122002854D0C029437881
:1036100005D19F4203D0003318BF012300E00023EF
:10362000134303F0010428B90BE0ACB910B96846A4
:1036300041460FE043788DF80330857804E0C029D7
:1036400039D000258DF803506846FFF7A3FB1CB165
:1036500068462946FFF71EFC6C46FFF775FB2046BF
:1036600020490422FFF78EFC20461F490222FFF763
:1036700089FC22E003330B6034E785423FF439AF25
:10368000FFF750FC0446FFF7CFFB23783BB19DF8D2
:103690000530A27803F00F0393423FF72AAF9DF85D
:1036A000003023709DF8023063709DF80530C3F33D
:1036B0000303A3701DE70346B2E708B0BDE8F0813D
:1036C00010C3072048C2072004C3072036C30720C1
:1036D00005C0072019C3072000C00720ECC207203F
:1036E00018C307205CC2072037C3072000231846F1
:1036F000094A1A4452780AB10130C0B22433902BDF
:10370000F6D1064B5A780AB10130C0B293F8253091
:103710000BB10130C0B270475CC2072037C307202D
:1037200008B5FFF76FFB064B28B18278187802FBCB
:103730000000C00008BD18781823584308BD00BF1A
:1037400004C0072003490B6803604B6843608B6823
:103750008360704704C3072030B5414C4FF4803577
:10376000E561404CA060E068C506FCD43D48806837
:10377000C0B20BB90C4665E00B46002A6AD0072A96
:10378000384C0D782FDDA5604D78083AA5608D780E
:10379000A560CD78A5600D79A5604D79A5608D797E
:1037A000A56001F10805C979A1602E498C696407FB
:1037B000FBD58C681C708C685C708C689C70896808
:1037C000D9702849CC68E406FBD48C68083303F828
:1037D000044C8C6803F8034C8C6803F8024C89682D
:1037E00003F8011C1BE0032A1BDDA5604D78043A99
:1037F000A5608D78A5600D1DC978A1601949CC68B8
:10380000E406FBD48C68043303F8044C8C6803F89A
:10381000034C8C6803F8024C896803F8011C2946A4
:10382000ABE70131A560013AE568ED06FCD40D4C2B
:103830000133A46803F8014C9FE7DD68ED06FCD472
:10384000084B9B68631A934204DA14F8015B054B3A
:103850009D60F2E7024B4FF480329A6130BD00BFA9
:1038600000C009200080084007B5002302A90122FA
:1038700001F8013D00F01F001346FFF76DFF9DF8B2
:10388000070003B05DF804FB07B502AB03F8011DA8
:1038900000F01F0019460122002340F02000FFF72E
:1038A0005BFF03B05DF804FB08B51720FFF7DCFFF2
:1038B000C0F3001008BD07207021FFF7E5BF0346E5
:1038C0000A46A02019460023FFF746BF08B500208E
:1038D000FFF7CAFFBDE8084000F0FE010020FFF737
:1038E000D3BF0000024B4FF08072DA61704700BF17
:1038F00020C0092008B50020FFF7B6FF40F0010105
:10390000C9B20020FFF7C0FF024B4FF080729A61EE
:1039100008BD00BF20C0092007202021FFF7B4BF49
:103920000021E1200A460B46FFF716BF37B50C46CB
:103930000546FFF7F5FF21462846FFF7C0FF0D4B70
:103940004FF080721C469A610022ADF80620BDF847
:10395000063001339BB2ADF8063033B94FF08073B7
:10396000E361FFF7DDFF03B030BDFFF79DFF0028E7
:10397000EDD0F3E720C0092008B51720FFF774FF4A
:1039800000F0010080F0010008BD07204021FFF792
:103990007BBF08B503460A46612019460123FFF79D
:1039A000DBFEC0F3420008BD0021E2200A460B46C0
:1039B000FFF7D2BE70B5064600200D461446FFF74D
:1039C00053FF16B100F0BF0002E040F04000C0B26B
:1039D00015B100F0DF0101E040F0200114B101F069
:1039E000EF0101E041F010010020BDE87040FFF759
:1039F0004BBF10B504460020FFF736FF14B900F0A6
:103A0000F7010DE0012C04D100F0FB0141F00801A9
:103A100006E0022C14BF40F0080140F00C01C9B2CE
:103A20000020BDE81040FFF72FBF08B50020FFF7CA
:103A30001BFFBDE8084040F00201C9B20020FFF7BB
:103A400023BF08B50020FFF70FFFBDE8084000F0D6
:103A5000FD010020FFF718BF40F6DD13984206D89D
:103A600040F66213B0F5166F38BF184600E01846EE
:103A7000A0F51661C9B20520FFF706BF10B50446D0
:103A80000620FFF7F1FEFA2C00F0D70102D141F039
:103A9000200104E0B4F5FA6F08BF41F008010620E8
:103AA000BDE81040FFF7F0BE10B504460620FFF752
:103AB000DBFE032C20F0060028BF032440EA44016B
:103AC000C9B20620BDE81040FFF7DEBEF9284FF06E
:103AD000FA0305D9B0F57A6F88BF4FF47A6000E039
:103AE0001846B0FBF3F00F2900F1FF30C0B228BF39
:103AF0000F2141EA0011C9B20420FFF7C5BE113001
:103B0000C0B2162804D8202928BF2021FFF7BCBE48
:103B10007047032804D0042814BF0321022100E0C9
:103B200001210320FFF7B0BE03460A4630201946A4
:103B30000023FFF711BE03460A462A201946002338
:103B4000FFF70ABE73B50E4615460446FFF72CFF75
:103B5000FFF7E6FE2B4B4FF08072DA61FFF771FF43
:103B600000210A460120FFF725FFFFF7A4FE0220EF
:103B7000FFF73FFF3046FFF76FFF2846FFF77EFF56
:103B80000320FFF791FF02200321FFF77DFE0120B4
:103B90000021FFF779FE4FF4FA700321FFF796FF3B
:103BA00021460020FFF7ABFF12200021FFF76CFE3B
:103BB00013200021FFF768FE14200021FFF764FEA8
:103BC00015200021FFF760FE00211620FFF75CFEA4
:103BD0000D4B18681B79009005208DF80430FFF715
:103BE00098FF68460521FFF79FFF68460521FFF70C
:103BF000A2FFFFF71AFF4FF4FA6004F0A0FC02B036
:103C000070BD00BF20C00920EF49020007B5094B75
:103C1000002102AA186842F8041D0B4605F089FF2E
:103C2000019B1BB1044B4FF080521A6003B05DF84A
:103C300004FB00BF88C3072004ED00E070B5174EF9
:103C4000326822B90320202105F0A9FE3060144D0E
:103C50002A6822B90120202105F0A1FE2860114C1C
:103C6000216821B90120032205F099FE206020205F
:103C700040F6C3114FF4FA62FFF764FFFFF73AFE14
:103C800016200121084A04F019FE306828B128687E
:103C900018B12068003018BF012070BD84C3072010
:103CA00080C3072088C307200D3C010070B506467D
:103CB0000379002203F0C003C02B0CBF0D4B0E4B49
:103CC00088B01D6831462846134605F099FE044623
:103CD00060B9224623466946284605F065FF22461C
:103CE00023462846314605F08BFE0446204608B0A0
:103CF00070BD00BF80C3072084C3072038B50446C9
:103D00000D46FFF70BFA237883420AD0E37843B9D4
:103D10000AF02AFABD2300F0030000FB033004F090
:103D20000EFCFFF7DFFDFFF7D1FD2046A9B2FFF73C
:103D3000FDFDFFF7F1FDFFF7DDFD06F0B9FC022800
:103D400006D1044B002118680A460B4605F0F1FE27
:103D5000012038BD88C3072038B505460C46FFF75B
:103D60000BFE48B1A1B22846FFF713FEFFF704FE91
:103D700008B9FFF70AFE012038BD2DE97043064659
:103D80000D46144606F094FC022807D12246304620
:103D90002946002305F008FFC4B21DE007F022F811
:103DA0004FF47A72002308F089FA10EB040841F10D
:103DB0000009002230462946134605F0F5FEC4B23C
:103DC00054B907F00FF84FF47A72002308F076FA2E
:103DD000894508BF8045ECD22046BDE870830429A0
:103DE00038B5054603D1041C18BF012400E00024A7
:103DF00006F0F8FF2CB14FF47A72002308F05EFA57
:103E00002860204638BD000000B50C4B8DB00993EA
:103E10000B4B0C4A0B930C4B0A930CAB43F8102D35
:103E2000002204920FCB8DE80F00084B0121084AB5
:103E30006A20FFF727FA0DB05DF804FB3D3C010056
:103E4000593D0100DF3D0100FD3C0100AD3C01009A
:103E5000F449020003460A46024908681946FFF77A
:103E60008CBF00BF84C3072003460A460249086886
:103E70001946FFF782BF00BF80C3072008B506F0D0
:103E800017FC0F4B02285B6913D15A020DD5FFF7BF
:103E90002DFC0C4B00284FF00001186814BF0122C4
:103EA0004FF0FF320B4605F07FFEBDE80840FFF7FC
:103EB000BBBA5B02F9D5FFF719FC0028F5D108BDA4
:103EC00000C0092088C30720F0B5864687B0104F90
:103ED0004C1101F01F0501AE457004700FCF0FC6E5
:103EE00070463B686D00336006AB03EB840353F808
:103EF000143C0322CEF80430E30003F1804303F5C1
:103F000030331968AA4021EA02021A6007B0F0BDF6
:103F1000FC490200416840780A680123834022EA94
:103F200003030B607047416840780A6801238340AF
:103F300013430B607047436841785A6901238B40F3
:103F4000134214BF012000207047417842680123CA
:103F50008B40936170474178426801238B40D36165
:103F6000704710B50446FFF7E6FF20B12046BDE8D4
:103F70001040FFF7F0BF2046BDE81040FFF7E5BF57
:103F800030B541780578054C490054F835200323B5
:103F90008B4022EA030344F8353030BD40C0024074
:103FA00010B5094A04780123407821B152F8241051
:103FB00083400B4304E052F82410834021EA0303BA
:103FC00042F8243010BD00BF68C0024010B504465E
:103FD000FFF7A0FF20460021FFF7E2FF2046FFF792
:103FE000CFFF204610BD30B504460D46134621795B
:103FF0002A46BDE83040006805F008B91FB50A46FA
:1040000004AB0021022423F8041D01790094006808
:1040100005F0E7F89DF80C009DF80D3043EA00200C
:1040200004B010BD10B504462A211922FFF7DBFFAA
:10403000206821790D2205F0D8F8A0F12A03584212
:10404000584110BD044A13881F2B9FBF581C108075
:10405000024A42F82310704790C3072094C30720F8
:10406000144AF0B51488012C20D9134B00211F46A7
:10407000661EB14206DA58681D680131401B43F8DC
:10408000040BF5E77B6803EB5301002318469CB251
:10409000B44209DA57F8245001338D4282BF01251A
:1040A00005FA04F42043F2E7044B18600023138060
:1040B000F0BD00BF90C3072094C307208CC3072026
:1040C00008B50220012106F025FE084B01209A6A5E
:1040D00022F007029A629A6A42F006029A62044A41
:1040E000D36843F03003D36008BD00BF00800040B8
:1040F00000C0024008B5044A01F07F034171D25C60
:104100000321FFF770FF08BD104A020008B5044AFA
:1041100001F07F038171D25C0221FFF764FF08BDCB
:10412000104A020038B504460068217905F079F894
:10413000054688B1204606210022FFF754FF20469D
:1041400007210022FFF74FFF20462E21FFF7D2FF65
:1041500020462E21FFF7DAFF284638BD642370B5CC
:10416000B1FBF3F404FB1311CCB20A21B4FBF1F55B
:1041700001FB15413031C9B20646FFF7C7FF092CD4
:104180008ABF05F1300130463046BDE8704094BF2B
:104190002021C9B2FFF7AEBF0120704738B50D46E8
:1041A000044606F0C1FB05F00F032370114B15F018
:1041B000010F4FF0010214BFDA619A61227812F008
:1041C000020F4FF0020214BFDA619A61227812F0F6
:1041D000040F4FF0100214BFDA619A61227812F0D6
:1041E000080F4FF4807214BFDA619A61BDE838405D
:1041F00006F0ACBB20C0092001207047022004F06B
:104200002FBA012070470000044B5B69C3F3813073
:10421000C3F3412343EA8000704700BF20C0092058
:1042200010B5044601218122FFF7DDFE20682179C7
:10423000012204F0DAFF10F0600F14BF012000200B
:1042400010BD38B500210546FFF7D8FE81220121B7
:1042500084B22846FFF7C7FE24B2102094FBF0F08A
:1042600007F042FE4FF0765107F092FEA96807F082
:1042700087FD38BD08B5FFF7E4FF054907F088FE64
:10428000044907F039FF4FF0844107F079FD08BD7C
:10429000000010410000A0402DE9F04F0546ADF2AE
:1042A000546D0C46904682A8294601229946DDF8B5
:1042B00078A602F011F8002867D121460DF22C40B3
:1042C0000A2202F009F8044620B182A802F075FA29
:1042D00020465AE0834606460090019006F082FD93
:1042E0004FF47A72002307F0E9FF02A907464FF462
:1042F000007282A86B4602F088F80546D8B9009B88
:10430000CBB106F06FFD4FF47A720023F61B07F075
:10431000D5FF064406F066FD4FF47A72002307F0DD
:10432000CDFF02A90746009A0DF22C4001AB02F026
:104330002AF90546B8B1B8F1000F01D0C8F80060FD
:10434000B9F1000F01D0C9F800B0BAF1000F01D0E7
:10435000CAF8004082A802F030FA0DF22C4002F0B8
:104360002CFA284611E0019A009B9A42E3D106F00C
:1043700039FD4FF47A72002307F0A0FF009BBBEBDE
:10438000070200EB020B1C44A8E70DF2546DBDE8D8
:10439000F08FF0B50446ADF50B7D0F46164621466D
:1043A0001D4601A800230122009301F095FF044659
:1043B00070B91DB101A8294602F011FA01A83946C9
:1043C00032466B4602F021F8044601A802F0F5F9E6
:1043D00020460DF50B7DF0BDF0B50446ADF50B7D27
:1043E0000F46164621461D4601A800230A220093C7
:1043F00001F072FF044670B91DB101A8294602F010
:10440000EEF901A8394632466B4602F0BCF8044684
:1044100001A802F0D2F920460DF50B7DF0BDF0B5F4
:104420000446ADF50B7D0F46164621461D4601A8F4
:1044300000231222009301F04FFF044680B901A827
:104440000DB1294600E0049902F0C9F901A83946E6
:1044500032466B4602F097F8044601A802F0ADF927
:1044600020460DF50B7DF0BD7F2816D931B1FF2810
:1044700012D80A4B803833F810007047074A8BB2C5
:1044800032F81120824203D001318029F6D10B4647
:1044900003F18000C0B2704700207047704C0200EA
:1044A0000023064A32F8132032B1904201D0013382
:1044B000F7E7034A32F81300704700BF704D02005F
:1044C000904A020010B501200C4605F00CFB20605C
:1044D000003018BF012010BD0120704710B5044600
:1044E00006F0E6F802280AD100210B4620464FF0DC
:1044F000FF3205F059FB431E5842584110BD0120C0
:1045000010BD10B5044606F0D3F8022807D10021EB
:104510002046BDE810400A460B4605F071BA10BDB2
:1045200010B5044604F066FC24B1012C06D100F05D
:104530007BF901E000F0EEFC044600E0042404F006
:1045400071FC204610BD28B1012801D0042070471D
:1045500000F018BA7047F8B507460E4615461C46D7
:1045600004F048FC3FB1012F0CD1304629462246C9
:1045700000F010FA04E030462946224600F016FD0D
:10458000044600E0042404F04DFC2046F8BDF8B5D4
:1045900007460E4615461C4604F02CFC3FB1012F81
:1045A0000CD130462946224600F042FA04E030465B
:1045B0002946224600F020FD044600E0042404F0D1
:1045C00031FC2046F8BD70B506460D46144604F091
:1045D00011FC36B1012E0AD12846214600F082FA9C
:1045E00003E02846214600F02BFD044600E00424A9
:1045F00004F018FC204670BD08B506F0F3FB4FF43C
:104600007A72002307F05AFE08BD000010B5044678
:1046100006F060FD074BB0FBF3F00223B0FBF3F2B2
:10462000944202D3044A136110BDB3F5807FF9D0E0
:104630000233F3E740420F0000000340044B986050
:10464000DA68D206FCD4024B9868C0B2704700BF4B
:104650000000034038B5FFF7CFFF00F5FA75FF20E3
:10466000FFF7ECFFFF20FFF7E9FFFF28044606D025
:10467000FFF7C2FF0023994208BFA842F2D32046A9
:1046800038BD000038B5064C4FF00075E561FFF706
:10469000E1FF044AA561137843F00103137038BDAC
:1046A00020C0092006C0072070B505460E46FFF75A
:1046B000A3FF00F16404FF20FFF7C0FFFF2808D12B
:1046C000FFF79AFF0023994208BFA042F3D30020CE
:1046D00070BDFE28FBD1102E06D928464FF400717C
:1046E000002204F025FB19E02C1DFF20FFF7A6FF98
:1046F00004F8040CFF20FFF7A1FF04F8030CFF20CF
:10470000FFF79CFF04F8020CFF20FFF797FF04342B
:1047100004F8050C331D1B1BDD42E6D1FF20FFF71B
:104720008DFFFF20FFF78AFF012070BD70B50646A0
:104730000D46FFF78FFFFF28044619D12846FFF7E3
:104740007DFFFD2D16D04FF400712246304604F057
:10475000EFFA2046FFF772FF2046FFF76FFF204673
:10476000FFF76CFF00F01F00431F5842584170BD17
:10477000002070BD012070BD020638B504460D460C
:1047800007D577200021FFF7F7FF012836D804F07E
:104790007F041B4B4FF000729A61DA61FFF75AFFFA
:1047A000FF282AD12046FFF749FF280EFFF746FFD2
:1047B000C5F30740FFF742FFC5F30720FFF73EFFB1
:1047C000E8B2FFF73BFF402C04D0482C0CBF8720F9
:1047D000012000E09520FFF731FF4C2C02D1FF2093
:1047E000FFF72CFF0A24FF20FFF728FF030605D55B
:1047F000013C14F0FF04F6D138BDFF2038BD00BFE6
:1048000020C00920064A074913784969DBB24901EB
:1048100054BF03F0FD0343F003031370704700BF60
:1048200006C0072020C009202DE9F347FFF7EAFF63
:10483000514B1A781E4612F0020F01D0187896E0FC
:104840000120FFF7E3FE0A24FF20013CFFF7F6FEFC
:1048500014F0FF04F8D1494D4FF00073EB61402094
:104860002146FFF789FF012801D000246EE0FFF701
:10487000C3FE4FF4D57100F57A7A4820FFF77CFF2C
:1048800001283DD1FF20FFF7D9FE01AF3855013493
:10489000042CF7D19DF80630012BE6D19DF80730A6
:1048A000AA2BE2D1FFF7A8FE4FF00009494508BF47
:1048B0005045D04606D3FFF79FFE494508BF404507
:1048C000D3D207E0E9204FF08041FFF755FF0028E1
:1048D000E8D1F0E77A200021FFF74EFF0028C4D18D
:1048E0000446FF20FFF7AAFE38550134042CF8D106
:1048F0009DF8043013F0400F14BF0C24042425E06D
:104900002146E920FFF738FF022835BF02240124A1
:10491000E9274127FFF770FE4FF00009494508BF1E
:104920005045D0460BD3FFF767FE494508BF4045C9
:104930000CD34FF400715020FFF71EFF06E03846FD
:104940000021FFF719FF0028E4D1ECE70C4B1C70A5
:104950004FF00073AB613CB13378182003F0FE03D5
:104960003370FFF753FE01E0FFF78CFE3078C0B2E2
:1049700002B0BDE8F08700BF06C0072020C00920B4
:1049800014C4072008B5FFF73DFF014B187808BD98
:1049900006C00720F8B5144607460E46FFF732FF5B
:1049A000002C3AD01F4B1B78DB0738D41E4B4FF03E
:1049B0000072DA611D4A1D46127812F0080F08BF16
:1049C0007602012C0DD151203146FFF7D5FEE8B912
:1049D00038464FF40071FFF767FEB0FA80F46409BF
:1049E00014E052203146FFF7C7FE78B938464FF43D
:1049F0000071FFF759FE28B1013C14F0FF0407F5E0
:104A00000077F3D14C200021FFF7B6FE4FF0007382
:104A1000201CAB6118BF0120F8BD0420F8BD0320A5
:104A2000F8BD00BF06C0072020C0092014C407201D
:104A3000F8B5144607460E46FFF7E4FE002C45D0B5
:104A4000254B1A78D20743D41B785B0742D4234BFB
:104A50004FF00072DA61224A1D46127812F0080FF8
:104A600008BF7602012C0CD158203146FFF784FE96
:104A700028BB3846FE21FFF759FEB0FA80F46409DE
:104A80001DE012F0060F03D0D7202146FFF774FE79
:104A900059203146FFF770FE88B93846FC21FFF7F0
:104AA00045FE28B1013C14F0FF0407F50077F4D16E
:104AB0000020FD21FFF73AFE002808BF01244FF037
:104AC0000073201CAB6118BF0120F8BD0420F8BDA5
:104AD0000320F8BD0220F8BD06C0072020C0092031
:104AE00014C407207FB504460D46FFF78BFE052C46
:104AF0001AD12B78012B00F0FD8003D3022B0BD0B1
:104B00000420FAE07E4B586910F0806440F0F28097
:104B1000FFF7B8FD2046F0E0794B5B6983F08063D6
:104B2000C3F380636B70E5E0764B1B78DB0700F125
:104B3000E3800E2C00F2D880DFE804F008124F5317
:104B4000D6D6D6D6D6D6A3A8AAB4C4006C4B4FF0FE
:104B50000072DA61FFF77EFDFF3818BF0120C4E064
:104B600049200021FFF708FE044608B10120BCE0FF
:104B700068461021FFF798FD0028F7D09DF8003017
:104B80009DF809009B09012B9DF8083005D10130E3
:104B900000EB03239BB29B021CE09DF807108900E9
:104BA00001EB93135A1C9DF806309DF8051003F095
:104BB000030302EB83239DF80A2001F00F0101EBB0
:104BC000D212911C00F0030201EB4202D2B29BB25E
:104BD000093A93402B60204687E04FF400732B8006
:104BE00052E0494E337803F0040303F0FF01DBB1D8
:104BF000CD200021FFF7C0FD0028B7D1FF20FFF72F
:104C00001DFD68461021FFF74FFD0028AED030246F
:104C1000FF20FFF713FD601E10F0FF04F8D19DF890
:104C20000A2010231209D4E74920FFF7A5FD044606
:104C300000289BD168461021FFF736FD002895D04B
:104C400031789DF80A2001F0020101F0FF009DF883
:104C50000B3051B102F03F02DB0903EB42039DF838
:104C60000D2001339209013AB3E7C2F3840103F046
:104C700003045A0902EBC402531C01FB03332B60EB
:104C800033E0214B1B782B7000202EE0492000E000
:104C90004A200021FFF770FD00287FF467AF284607
:104CA00010211BE07A200021FFF766FD00287FF429
:104CB0005DAF2C1DFF20FFF7C1FC05F8010BA542DD
:104CC000F8D1E1E7CD200021FFF756FD00287FF461
:104CD0004DAFFF20FFF7B2FC28464021FFF7E4FC70
:104CE000B0FA80F0400900E00420054B4FF000725C
:104CF0009A6102E0002000E0032004B070BD00BF14
:104D000020C0092006C0072014C40720054B1B78CB
:104D1000253BDBB2032B9ABF034A52F82300002045
:104D2000704700BF18C40720584F02001B4B2DE9E5
:104D3000F0411D880646B5F5007F0F46144602D1A6
:104D4000084611460AE0B5F5807F09D108461146AC
:104D50002A46B04707F5807004F580712A4617E0AF
:104D6000B5F5047F05D1510A384689024FF4007227
:104D70000EE0B5F5847F0FD1140A08464FF4807217
:104D80006102B047611C07F5807049024FF48072E0
:104D90003346BDE8F0411847BDE8F08116C407204E
:104DA000034610B500295DDD07291A782E4C2FDD4A
:104DB000A2605A780839A2609A78A260DA78A26074
:104DC0001A79A2605A79A2609A79A26003F1080266
:104DD000DB79A360244B9C696407FBD59C68047055
:104DE0009C6844709C6884709B68C3701E4BDC6830
:104DF000E406FBD49C68083000F8044C9C6800F87A
:104E0000034C9C6800F8024C9B6800F8013C1BE0D6
:104E100003291BDDA2605A780439A2609A78A26047
:104E20001A1DDB78A360104BDC68E406FBD49C6899
:104E3000043000F8044C9C6800F8034C9C6800F8AF
:104E4000024C9B6800F8013C1346ABE70133A260BB
:104E50000139E268D206FCD4034A0130926800F8B6
:104E6000012C9FE710BD00BF0000034007B50B0CED
:104E70008DF804008DF805308DF807100B0A01A895
:104E800004218DF80630FFF78BFF03B05DF804FBBB
:104E9000F7B5164607460E4C40250323E5618DF80D
:104EA00004300B0C8DF805308DF807100B0A01A8A3
:104EB00004218DF80630FFF773FF38463146002293
:104EC00003F036FFA561A561A56103B0F0BD00BF89
:104ED00000C009200D4B4022DA610D4BD7229A60A9
:104EE000DA68D106FCD40A4B9B68094BFF229A6012
:104EF000DA68D206FCD4064B98680306F5D5034B56
:104F000040229A61C0B29A619A61704700C009203C
:104F100000000340F7B5FFF7DDFF1F4C002323809F
:104F20001E4B1F4E40271A889B78F76105460321C8
:104F300001A8ADF804208DF80630FFF731FF9DF889
:104F400005209DF806301F2AB761B761B7611CD1F3
:104F5000A3F12502032A18D8124A252B137005F055
:104F6000010006D1002814BF4FF480734FF48473FE
:104F700005E0002814BF4FF400734FF4047323803E
:104F8000FFF7C4FE084B400A18602088B0FA80F092
:104F9000400903B0F0BD00BF16C40720504F020007
:104FA00000C0092018C407201CC407202DE9F041C7
:104FB0008B1817460E4A013B12688046934214D85C
:104FC0004D024446FFF786FF0026C8EB0502BE42AD
:104FD000224407DA21460748FFF7A8FE04F50074CB
:104FE0000136F2E70020BDE8F0810120BDE8F08144
:104FF0001CC40720914E01002DE9F0418B18174683
:105000000D4A013B12688046934212D804464D0275
:105010000026C8EB0502BE42224407DA21460748B3
:10502000FFF784FE04F500740136F2E70020BDE8C6
:10503000F0810120BDE8F0811CC40720215101004E
:1050400010B50C46072805D8DFE800F006090E1257
:1050500014141414042010BDFFF73CFF0AE0FFF7FE
:1050600055FE400A206005E04FF400730B8001E01C
:1050700001230B60002010BD70B590B003466A4656
:105080006E4600F14005144618685968083303C499
:10509000AB422246F7D1084D4024EC619B20002111
:1050A000FFF7E4FE30462146FFF77AFEAC61AC61C3
:1050B000AC6110B070BD00BF00C0092070B50646DD
:1050C000074D402477200021EC61FFF7CFFE3046EA
:1050D0002146FFF765FEAC61AC61AC6170BD00BFFD
:1050E00000C00920064B10B51C8834F01F0404D002
:1050F000FFF70CFEB0FBF4F010BD204610BD00BF62
:1051000016C40720014B1888704700BF16C407203B
:10511000024B1878003018BF0120704716C40720D2
:105120002DE9F7434FF0FF330F4690460193814638
:10513000FFF7D0FEFFF7ECFF0646B0B1194C402553
:10514000194BE5611B880320B3F5847F0CBF4FF436
:1051500080714FF400713943FFF788FE01A80421E4
:10516000FFF71EFEA561A561A5610E4C40238220BC
:105170003946E361FFF77AFE48464146012203F0D3
:10518000D7FD3EB1019B02A8013340F8043D042144
:10519000FFF706FE4023A361A361A36103B0BDE84E
:1051A000F08300BF00C0092016C40720F7B5124BDA
:1051B00007461B88B3F5847F4FF0FF330CBF4FF4D5
:1051C00080764FF400760193FFF7A2FF70B10B4C8D
:1051D0004025032046EA4721E561FFF747FE01A885
:1051E0000421FFF7DDFDA561A561A5610198431CC0
:1051F00008BF002003B0F0BD16C4072000C009207E
:1052000037B5074B074C1868402501900421E5612C
:1052100001A8FFF7C5FDA561A561A56103B030BD7B
:10522000534F020000C009201FB501A803F0A4FCE1
:105230009DF809309DF8082003F00F0302F01F02CB
:105240005B0543EA02419DF806309DF8040003F037
:105250001F0341EAC3229DF80530C0F3440003F068
:105260003F0342EA4313BDF80A201843520602F1F5
:105270000842104305B05DF804FB30B504460D1F2D
:10528000131B0344032B04D955F8043F44F8043B93
:10529000F6E722F00303194402F00302013B18442D
:1052A0000A44914204D011F8013B00F8013FF8E7AD
:1052B00030BD0244904202D000F8011BFAE770476B
:1052C00000F10B010023DA0142EA530310F8012B2D
:1052D0001344884203F0FF03F5D118467047026873
:1052E00010B50446BAB11346184613F8011B1F291E
:1052F00002D93A29F8D101E0002010BD114611F879
:10530000013B884207D1303BD9B2012903D8023290
:105310001846226010BD4FF0FF3010BD03692DE923
:10532000F04101F109020D4653B3416900244E1EBC
:1053300016F8013F0134202B18D0052B47D0092C3B
:1053400002D12E2717700132A3F14107192F0BD874
:10535000082C0F7B8CBF4FF0100E4FF0080E1EEA8A
:10536000070F1CBF2033DBB2137001320B2CDFD1CF
:10537000CB7A2B72CB692B600B8BAB80CB8AEB800B
:1053800000241470AE693EB303690BB900241AE01F
:10539000EB69002BFAD04FF6FF73028C9A42F5D0DE
:1053A000D0F81C80771E38F8140060B10021FFF798
:1053B0005BF80028EAD0EB69013B9C42E6D201345D
:1053C00007F8010FEFE700233355BDE8F081092C02
:1053D0004FF0E503C8D1B4E7BDE8F081F8B5037933
:1053E00004460BB90020F8BD056B00F134073946BF
:1053F00040782A460123FFF7CAF890B9636AE26948
:10540000EB1A93422071EDD2E678012EEAD9E369D6
:1054100060781D4439462A460123FFF7B8F8013E5B
:10542000F3E70120F8BD0000F8B50446FFF7D6FF0A
:1054300005468DBB2378032B26D16679012E23D117
:1054400004F13407384629464FF40072FFF731FF64
:105450004AF65523A4F83232104B226A636303F1F3
:10546000FF5303F500532033C4F818326369013247
:10547000C4F81C3223692263C4F8203260783946AC
:105480003346FFF784F86571002160780A46FFF71C
:105490009AF8003018BF0120F8BD00BF5252614198
:1054A000036B70B5994205460E4610D0FFF796FF84
:1054B000044608B101240BE0687805F13401324656
:1054C0000123FFF748F80028F4D12E6300E0002400
:1054D000204670BD002310B503714FF0FF33036306
:1054E0000446FFF7DDFFA0B94AF65523B4F832228F
:1054F0009A4210D1D4F86A30084A23F07F4393428D
:105500000AD0D4F8860020F07F40801A18BF01200E
:1055100010BD032010BD022010BD00BF4641540045
:10552000F0B50023036085B0074608461546FFF72F
:10553000D6FE061EC0F2F2807E4B53F82640002CA9
:1055400000F0EE80E068FEF7C9FF002800F0EA8076
:105550003C60237883B16078FEF7F5FFC1070BD478
:10556000002D00F0D98000F0040303F0FF00002BB1
:1055700000F0DD800A20DAE00023F0B223706070D2
:10558000FEF7CEFFC20700F1CF800DB14307F1D483
:1055900020460021FFF79EFF01281CD12146002252
:1055A00091F8F6310BB1D1F8FA314DF822300132D1
:1055B000042A01F11001F3D100265DF826502DB127
:1055C00020462946FFF786FF08B90BE00220013686
:1055D000042EF2D100E00025032800F0A78008B1D6
:1055E0000D20A4E0B4F83F30B3F5007FF8D1B4F853
:1055F0004A0000B9A06D94F844E0E0610EF1FF3379
:10560000012B84F803E0EBD894F84130A370002B11
:10561000E6D05A1E1A42E3D1B4F845C01CF00F0F71
:10562000A4F808C0DCD1B4F8472002B9626DB4F820
:1056300042100029D4D00EFB00FE01EB1C1777446A
:10564000BA42CDD3D21BB2FBF3F3002BC8D040F645
:10565000F572934206D94FF6F576B3428CBF032616
:10566000022600E00126023329442F44032EA361C1
:1056700025626162E76206D1BCF1000FB0D1226EF3
:105680009B00A26210E0BCF1000FA9D0022E4FEAED
:1056900043020CBF1346D218714418BF03F0010334
:1056A000A16218BF03EB520303F2FF13B0EB532FB9
:1056B00096D34FF0FF3363612361032E4FF08003D5
:1056C000637122D1B4F86430012B1ED12046691CCD
:1056D000FFF7E6FEC8B94AF65523B4F832226071E6
:1056E0009A4212D1626B144B9A420ED103F1FF53CE
:1056F000D4F8182203F5005320339A4201BFD4F89E
:105700001C326361D4F8203223610C4A267013885E
:1057100001339BB21380E380002008E00B2006E0F9
:105720000C2004E00F2002E0032000E0012005B07F
:10573000F0BD00BF24C407205252614120C407209D
:1057400010B50446A8B103689BB11A788AB1D9880C
:10575000828891420DD1D868FEF7C0FE58B1236807
:105760005878FEF7F0FE10F0010F14BF0320002060
:1057700010BD092010BD0F2010BD50B1A1F10B03C9
:10578000012B06D9092904D00F2902D0C068FEF7E1
:10579000B8BE704783690239023B99423DBF8278A7
:1057A000C36A02FB0130002070470129F8B50746A3
:1057B0000C464BD98369994248D20378022B29D0F1
:1057C000032B34D0012B41D101EB5106416A01EB8F
:1057D0005621FFF765FE10B14FF0FF30F8BD796A32
:1057E000C6F3080301363B44384601EB562193F8D3
:1057F0003450FFF755FE0028EED1C6F308063E44AC
:1058000096F83400E30745EA00204CBF0009C0F3D6
:105810000B00F8BD416A01EB1421FFF741FE00289F
:10582000DAD1630003F4FF73FE18B08EF8BD416A4D
:1058300001EBD411FFF734FE0028CDD1A40004F40D
:10584000FE743C44606B20F07040F8BD0120F8BD50
:10585000F8B5054684680E46012CE98001D1022086
:10586000F8BD03689A699442F9D254B91A78032AA8
:1058700001D19A6A22B91A899642F0D2986A17E041
:10588000144621469F783F01BE420DD32868FFF79A
:105890008CFF431C01461AD00128E0D92B689B6974
:1058A0009842DCD2F61BEFE728680C46FFF772FF40
:1058B000EC600028D3D02B6800EB161006F00F0622
:1058C00003EB4616343628616E610020F8BD0120D6
:1058D000F8BD0129F8B505460C4616465FD983691F
:1058E00099425CD20378022B38D0032B42D0012B93
:1058F00051D101EB5107416A01EB5721FFF7D0FD70
:10590000002849D1C7F3080314F001042B4418BF41
:1059100093F83410F2B21EBF01F00F0141EA0212F7
:10592000D2B2696A83F83420013701232B712846EB
:1059300001EB5721FFF7B4FD70BBC7F308072F44F5
:1059400014B1C6F3071606E097F83430C6F3032601
:1059500023F00F031E4387F834601DE0416A01EB1A
:105960001421FFF79DFDB8B9640004F4FF742C44C2
:10597000A68611E0416A01EBD411FFF791FD58B9F9
:10598000A40004F4FE7430342C44636803F07043C4
:105990001E43666000E0022001232B71F8BD022047
:1059A000F8BDF8B505460F4631B9066996B1836969
:1059B0009E4228BF01260EE0FFF7F7FE01283FD9DF
:1059C000441C02D14FF0FF30F8BDAB69984238D388
:1059D0003E4600E001263446AB6901349C4204D3C4
:1059E000012E01D80020F8BD022428462146FFF7E9
:1059F000DCFE30B1411C24D0012822D0B442EBD1CE
:105A0000F0E7284621466FF07042FFF762FFA8B921
:105A100057B96B692C615A1C0ED0013B6B616B79D5
:105A200043F001036B7107E0284639462246FFF731
:105A300050FF0028EDD001E02046F8BD0128C1D07C
:105A40000120F8BD2DE9F843C68804460136B3B2FB
:105A50000F4613B90420BDE8F8830369002BF9D081
:105A600016F00F0859D1C16801330361006819B9F4
:105A700003899E42EED250E08378013B13EA16136D
:105A80004BD1FFF792FE0128054602D80220BDE85F
:105A9000F883421C02D10120BDE8F88320688369A5
:105AA0009D4234D3002FD5D0E168FFF77AFF054639
:105AB00000283BD00128E9D0431CECD02068FFF738
:105AC0008DFC07460028E6D12068394634304FF473
:105AD0000072FFF7EEFBD4F8009029464846FFF726
